{
  "contractName": "HIT_DAO",
  "abi": [
    {
      "inputs": [
        {
          "internalType": "string",
          "name": "name_",
          "type": "string"
        },
        {
          "internalType": "string",
          "name": "symbol_",
          "type": "string"
        },
        {
          "internalType": "string",
          "name": "uri_",
          "type": "string"
        }
      ],
      "stateMutability": "nonpayable",
      "type": "constructor"
    },
    {
      "anonymous": false,
      "inputs": [
        {
          "indexed": true,
          "internalType": "address",
          "name": "owner",
          "type": "address"
        },
        {
          "indexed": true,
          "internalType": "address",
          "name": "approved",
          "type": "address"
        },
        {
          "indexed": true,
          "internalType": "uint256",
          "name": "tokenId",
          "type": "uint256"
        }
      ],
      "name": "Approval",
      "type": "event"
    },
    {
      "anonymous": false,
      "inputs": [
        {
          "indexed": true,
          "internalType": "address",
          "name": "owner",
          "type": "address"
        },
        {
          "indexed": true,
          "internalType": "address",
          "name": "operator",
          "type": "address"
        },
        {
          "indexed": false,
          "internalType": "bool",
          "name": "approved",
          "type": "bool"
        }
      ],
      "name": "ApprovalForAll",
      "type": "event"
    },
    {
      "anonymous": false,
      "inputs": [
        {
          "indexed": true,
          "internalType": "bytes32",
          "name": "role",
          "type": "bytes32"
        },
        {
          "indexed": true,
          "internalType": "bytes32",
          "name": "previousAdminRole",
          "type": "bytes32"
        },
        {
          "indexed": true,
          "internalType": "bytes32",
          "name": "newAdminRole",
          "type": "bytes32"
        }
      ],
      "name": "RoleAdminChanged",
      "type": "event"
    },
    {
      "anonymous": false,
      "inputs": [
        {
          "indexed": true,
          "internalType": "bytes32",
          "name": "role",
          "type": "bytes32"
        },
        {
          "indexed": true,
          "internalType": "address",
          "name": "account",
          "type": "address"
        },
        {
          "indexed": true,
          "internalType": "address",
          "name": "sender",
          "type": "address"
        }
      ],
      "name": "RoleGranted",
      "type": "event"
    },
    {
      "anonymous": false,
      "inputs": [
        {
          "indexed": true,
          "internalType": "bytes32",
          "name": "role",
          "type": "bytes32"
        },
        {
          "indexed": true,
          "internalType": "address",
          "name": "account",
          "type": "address"
        },
        {
          "indexed": true,
          "internalType": "address",
          "name": "sender",
          "type": "address"
        }
      ],
      "name": "RoleRevoked",
      "type": "event"
    },
    {
      "anonymous": false,
      "inputs": [
        {
          "indexed": true,
          "internalType": "address",
          "name": "from",
          "type": "address"
        },
        {
          "indexed": true,
          "internalType": "address",
          "name": "to",
          "type": "address"
        },
        {
          "indexed": true,
          "internalType": "uint256",
          "name": "tokenId",
          "type": "uint256"
        }
      ],
      "name": "Transfer",
      "type": "event"
    },
    {
      "inputs": [],
      "name": "DEFAULT_ADMIN_ROLE",
      "outputs": [
        {
          "internalType": "bytes32",
          "name": "",
          "type": "bytes32"
        }
      ],
      "stateMutability": "view",
      "type": "function"
    },
    {
      "inputs": [],
      "name": "MINTER_ROLE",
      "outputs": [
        {
          "internalType": "bytes32",
          "name": "",
          "type": "bytes32"
        }
      ],
      "stateMutability": "view",
      "type": "function"
    },
    {
      "inputs": [],
      "name": "PAUSER_ROLE",
      "outputs": [
        {
          "internalType": "bytes32",
          "name": "",
          "type": "bytes32"
        }
      ],
      "stateMutability": "view",
      "type": "function"
    },
    {
      "inputs": [
        {
          "internalType": "address",
          "name": "to",
          "type": "address"
        },
        {
          "internalType": "uint256",
          "name": "tokenId",
          "type": "uint256"
        }
      ],
      "name": "approve",
      "outputs": [],
      "stateMutability": "nonpayable",
      "type": "function"
    },
    {
      "inputs": [
        {
          "internalType": "address",
          "name": "owner",
          "type": "address"
        }
      ],
      "name": "balanceOf",
      "outputs": [
        {
          "internalType": "uint256",
          "name": "",
          "type": "uint256"
        }
      ],
      "stateMutability": "view",
      "type": "function"
    },
    {
      "inputs": [
        {
          "internalType": "uint256",
          "name": "tokenId",
          "type": "uint256"
        }
      ],
      "name": "getApproved",
      "outputs": [
        {
          "internalType": "address",
          "name": "",
          "type": "address"
        }
      ],
      "stateMutability": "view",
      "type": "function"
    },
    {
      "inputs": [
        {
          "internalType": "bytes32",
          "name": "role",
          "type": "bytes32"
        }
      ],
      "name": "getRoleAdmin",
      "outputs": [
        {
          "internalType": "bytes32",
          "name": "",
          "type": "bytes32"
        }
      ],
      "stateMutability": "view",
      "type": "function"
    },
    {
      "inputs": [
        {
          "internalType": "bytes32",
          "name": "role",
          "type": "bytes32"
        },
        {
          "internalType": "uint256",
          "name": "index",
          "type": "uint256"
        }
      ],
      "name": "getRoleMember",
      "outputs": [
        {
          "internalType": "address",
          "name": "",
          "type": "address"
        }
      ],
      "stateMutability": "view",
      "type": "function"
    },
    {
      "inputs": [
        {
          "internalType": "bytes32",
          "name": "role",
          "type": "bytes32"
        }
      ],
      "name": "getRoleMemberCount",
      "outputs": [
        {
          "internalType": "uint256",
          "name": "",
          "type": "uint256"
        }
      ],
      "stateMutability": "view",
      "type": "function"
    },
    {
      "inputs": [
        {
          "internalType": "bytes32",
          "name": "role",
          "type": "bytes32"
        },
        {
          "internalType": "address",
          "name": "account",
          "type": "address"
        }
      ],
      "name": "grantRole",
      "outputs": [],
      "stateMutability": "nonpayable",
      "type": "function"
    },
    {
      "inputs": [
        {
          "internalType": "bytes32",
          "name": "role",
          "type": "bytes32"
        },
        {
          "internalType": "address",
          "name": "account",
          "type": "address"
        }
      ],
      "name": "hasRole",
      "outputs": [
        {
          "internalType": "bool",
          "name": "",
          "type": "bool"
        }
      ],
      "stateMutability": "view",
      "type": "function"
    },
    {
      "inputs": [
        {
          "internalType": "address",
          "name": "owner",
          "type": "address"
        },
        {
          "internalType": "address",
          "name": "operator",
          "type": "address"
        }
      ],
      "name": "isApprovedForAll",
      "outputs": [
        {
          "internalType": "bool",
          "name": "",
          "type": "bool"
        }
      ],
      "stateMutability": "view",
      "type": "function"
    },
    {
      "inputs": [],
      "name": "name",
      "outputs": [
        {
          "internalType": "string",
          "name": "",
          "type": "string"
        }
      ],
      "stateMutability": "view",
      "type": "function"
    },
    {
      "inputs": [
        {
          "internalType": "uint256",
          "name": "tokenId",
          "type": "uint256"
        }
      ],
      "name": "ownerOf",
      "outputs": [
        {
          "internalType": "address",
          "name": "",
          "type": "address"
        }
      ],
      "stateMutability": "view",
      "type": "function"
    },
    {
      "inputs": [
        {
          "internalType": "bytes32",
          "name": "role",
          "type": "bytes32"
        },
        {
          "internalType": "address",
          "name": "account",
          "type": "address"
        }
      ],
      "name": "renounceRole",
      "outputs": [],
      "stateMutability": "nonpayable",
      "type": "function"
    },
    {
      "inputs": [
        {
          "internalType": "bytes32",
          "name": "role",
          "type": "bytes32"
        },
        {
          "internalType": "address",
          "name": "account",
          "type": "address"
        }
      ],
      "name": "revokeRole",
      "outputs": [],
      "stateMutability": "nonpayable",
      "type": "function"
    },
    {
      "inputs": [
        {
          "internalType": "address",
          "name": "from",
          "type": "address"
        },
        {
          "internalType": "address",
          "name": "to",
          "type": "address"
        },
        {
          "internalType": "uint256",
          "name": "tokenId",
          "type": "uint256"
        }
      ],
      "name": "safeTransferFrom",
      "outputs": [],
      "stateMutability": "nonpayable",
      "type": "function"
    },
    {
      "inputs": [
        {
          "internalType": "address",
          "name": "from",
          "type": "address"
        },
        {
          "internalType": "address",
          "name": "to",
          "type": "address"
        },
        {
          "internalType": "uint256",
          "name": "tokenId",
          "type": "uint256"
        },
        {
          "internalType": "bytes",
          "name": "data",
          "type": "bytes"
        }
      ],
      "name": "safeTransferFrom",
      "outputs": [],
      "stateMutability": "nonpayable",
      "type": "function"
    },
    {
      "inputs": [
        {
          "internalType": "address",
          "name": "operator",
          "type": "address"
        },
        {
          "internalType": "bool",
          "name": "approved",
          "type": "bool"
        }
      ],
      "name": "setApprovalForAll",
      "outputs": [],
      "stateMutability": "nonpayable",
      "type": "function"
    },
    {
      "inputs": [],
      "name": "symbol",
      "outputs": [
        {
          "internalType": "string",
          "name": "",
          "type": "string"
        }
      ],
      "stateMutability": "view",
      "type": "function"
    },
    {
      "inputs": [
        {
          "internalType": "uint256",
          "name": "index",
          "type": "uint256"
        }
      ],
      "name": "tokenByIndex",
      "outputs": [
        {
          "internalType": "uint256",
          "name": "",
          "type": "uint256"
        }
      ],
      "stateMutability": "view",
      "type": "function"
    },
    {
      "inputs": [
        {
          "internalType": "address",
          "name": "owner",
          "type": "address"
        },
        {
          "internalType": "uint256",
          "name": "index",
          "type": "uint256"
        }
      ],
      "name": "tokenOfOwnerByIndex",
      "outputs": [
        {
          "internalType": "uint256",
          "name": "",
          "type": "uint256"
        }
      ],
      "stateMutability": "view",
      "type": "function"
    },
    {
      "inputs": [
        {
          "internalType": "uint256",
          "name": "tokenId",
          "type": "uint256"
        }
      ],
      "name": "tokenURI",
      "outputs": [
        {
          "internalType": "string",
          "name": "",
          "type": "string"
        }
      ],
      "stateMutability": "view",
      "type": "function"
    },
    {
      "inputs": [
        {
          "internalType": "uint256",
          "name": "offset",
          "type": "uint256"
        },
        {
          "internalType": "uint256",
          "name": "limit",
          "type": "uint256"
        }
      ],
      "name": "tokens",
      "outputs": [
        {
          "internalType": "uint256",
          "name": "total",
          "type": "uint256"
        },
        {
          "internalType": "uint256[]",
          "name": "tokenIds",
          "type": "uint256[]"
        }
      ],
      "stateMutability": "view",
      "type": "function"
    },
    {
      "inputs": [
        {
          "internalType": "address",
          "name": "owner",
          "type": "address"
        },
        {
          "internalType": "uint256",
          "name": "offset",
          "type": "uint256"
        },
        {
          "internalType": "uint256",
          "name": "limit",
          "type": "uint256"
        }
      ],
      "name": "tokensOf",
      "outputs": [
        {
          "internalType": "uint256",
          "name": "total",
          "type": "uint256"
        },
        {
          "internalType": "uint256[]",
          "name": "tokenIds",
          "type": "uint256[]"
        }
      ],
      "stateMutability": "view",
      "type": "function"
    },
    {
      "inputs": [],
      "name": "totalSupply",
      "outputs": [
        {
          "internalType": "uint256",
          "name": "",
          "type": "uint256"
        }
      ],
      "stateMutability": "view",
      "type": "function"
    },
    {
      "inputs": [
        {
          "internalType": "address",
          "name": "from",
          "type": "address"
        },
        {
          "internalType": "address",
          "name": "to",
          "type": "address"
        },
        {
          "internalType": "uint256",
          "name": "tokenId",
          "type": "uint256"
        }
      ],
      "name": "transferFrom",
      "outputs": [],
      "stateMutability": "nonpayable",
      "type": "function"
    },
    {
      "inputs": [
        {
          "internalType": "address",
          "name": "minter_",
          "type": "address"
        }
      ],
      "name": "addMinter",
      "outputs": [],
      "stateMutability": "nonpayable",
      "type": "function"
    },
    {
      "inputs": [
        {
          "internalType": "address",
          "name": "minter_",
          "type": "address"
        }
      ],
      "name": "removeMinter",
      "outputs": [],
      "stateMutability": "nonpayable",
      "type": "function"
    },
    {
      "inputs": [
        {
          "internalType": "address",
          "name": "to",
          "type": "address"
        }
      ],
      "name": "mint",
      "outputs": [],
      "stateMutability": "nonpayable",
      "type": "function"
    },
    {
      "inputs": [
        {
          "internalType": "bytes4",
          "name": "interfaceId",
          "type": "bytes4"
        }
      ],
      "name": "supportsInterface",
      "outputs": [
        {
          "internalType": "bool",
          "name": "",
          "type": "bool"
        }
      ],
      "stateMutability": "view",
      "type": "function"
    }
  ],
  "bytecode": "0x60806040523480156200001157600080fd5b5060405162002e4c38038062002e4c833981016040819052620000349162000659565b8251839083906200004d906002906020850190620004d0565b50805162000063906003906020840190620004d0565b5062000071915050620002f6565b6200007c576200025d565b60408051600180825281830190925260009160208083019080368337019050509050600081600081518110620000c257634e487b7160e01b600052603260045260246000fd5b6001600160a01b0390921660209283029190910190910152604051630809469f60e11b8152730888000000000000000000000000000000000001906310128d3e906200011390849060040162000714565b600060405180830381600087803b1580156200012e57600080fd5b505af115801562000143573d6000803e3d6000fd5b505060405163c55b6bb760e01b815261011160931b925063c55b6bb7915062000174903090600090600401620006fa565b600060405180830381600087803b1580156200018f57600080fd5b505af1158015620001a4573d6000803e3d6000fd5b50506040516364efb22b60e01b81526000925061011160931b91506364efb22b90620001d5903090600401620006e6565b60206040518083038186803b158015620001ee57600080fd5b505afa15801562000203573d6000803e3d6000fd5b505050506040513d601f19601f8201168201806040525081019062000229919062000629565b6001600160a01b0316146200025b5760405162461bcd60e51b8152600401620002529062000763565b60405180910390fd5b505b6200027360006200026d62000330565b62000334565b620002a27f9f2df0fed2c77648de5860a4cc508cd0818c85b8b8a1ab4ceeef8d981c8956a66200026d62000330565b620002d17f65d7a28e3265b37a6474929f336521b332c1681b933f6cb9f3376673440d862a6200026d62000330565b8051620002e690600d906020840190620004d0565b50506001600c5550620007ed9050565b60006200032b7388887ed889e776bcbe2f0f9932ecfabcdfcd18206001600160a01b03166200034460201b62000bfc1760201c565b905090565b3390565b62000340828262000353565b5050565b6001600160a01b03163b151590565b6200036a82826200039660201b62000c0b1760201c565b60008281526001602090815260409091206200039191839062000c9062000420821b17901c565b505050565b620003a2828262000440565b62000340576000828152602081815260408083206001600160a01b03851684529091529020805460ff19166001179055620003dc62000330565b6001600160a01b0316816001600160a01b0316837f2f8788117e7eff1d82e926ec794901d17c78024a50270940304540a733656f0d60405160405180910390a45050565b600062000437836001600160a01b03841662000469565b90505b92915050565b6000918252602082815260408084206001600160a01b0393909316845291905290205460ff1690565b6000620004778383620004b8565b620004af575081546001818101845560008481526020808220909301849055845484825282860190935260409020919091556200043a565b5060006200043a565b60009081526001919091016020526040902054151590565b828054620004de906200079a565b90600052602060002090601f0160209004810192826200050257600085556200054d565b82601f106200051d57805160ff19168380011785556200054d565b828001600101855582156200054d579182015b828111156200054d57825182559160200191906001019062000530565b506200055b9291506200055f565b5090565b5b808211156200055b576000815560010162000560565b600082601f83011262000587578081fd5b81516001600160401b0380821115620005a457620005a4620007d7565b604051601f8301601f19908116603f01168101908282118183101715620005cf57620005cf620007d7565b81604052838152602092508683858801011115620005eb578485fd5b8491505b838210156200060e5785820183015181830184015290820190620005ef565b838211156200061f57848385830101525b9695505050505050565b6000602082840312156200063b578081fd5b81516001600160a01b038116811462000652578182fd5b9392505050565b6000806000606084860312156200066e578182fd5b83516001600160401b038082111562000685578384fd5b620006938783880162000576565b94506020860151915080821115620006a9578384fd5b620006b78783880162000576565b93506040860151915080821115620006cd578283fd5b50620006dc8682870162000576565b9150509250925092565b6001600160a01b0391909116815260200190565b6001600160a01b0392831681529116602082015260400190565b6020808252825182820181905260009190848201906040850190845b81811015620007575783516001600160a01b03168352928401929184019160010162000730565b50909695505050505050565b60208082526015908201527f726571756972652061646d696e203d3d206e756c6c0000000000000000000000604082015260600190565b600281046001821680620007af57607f821691505b60208210811415620007d157634e487b7160e01b600052602260045260246000fd5b50919050565b634e487b7160e01b600052604160045260246000fd5b61264f80620007fd6000396000f3fe608060405234801561001057600080fd5b50600436106101e55760003560e01c80636a6278421161010f578063a22cb465116100a2578063d539139311610071578063d53913931461040c578063d547741f14610414578063e63ab1e914610427578063e985e9c51461042f576101e5565b8063a22cb465146103c0578063b88d4fde146103d3578063c87b56dd146103e6578063ca15c873146103f9576101e5565b806391d14854116100de57806391d148541461038a57806395d89b411461039d578063983b2d56146103a5578063a217fddf146103b8576101e5565b80636a6278421461033e57806370a08231146103515780638b4864d6146103645780639010d07c14610377576101e5565b8063248a9ca31161018757806336568abe1161015657806336568abe146102f257806342842e0e146103055780634f6ccce7146103185780636352211e1461032b576101e5565b8063248a9ca3146102a65780632f2ff15d146102b95780632f745c59146102cc5780633092afd5146102df576101e5565b8063095ea7b3116101c3578063095ea7b31461024857806318160ddd1461025d57806323185dc91461027257806323b872dd14610293576101e5565b806301ffc9a7146101ea57806306fdde0314610213578063081812fc14610228575b600080fd5b6101fd6101f8366004611e59565b610442565b60405161020a9190611fb2565b60405180910390f35b61021b610464565b60405161020a9190611fc6565b61023b610236366004611dfe565b6104f6565b60405161020a9190611f61565b61025b610256366004611da3565b61051d565b005b6102656105be565b60405161020a9190611fbd565b610285610280366004611dcc565b6105c4565b60405161020a929190612483565b61025b6102a1366004611c59565b6106d3565b6102656102b4366004611dfe565b61070b565b61025b6102c7366004611e16565b610720565b6102656102da366004611da3565b61073c565b61025b6102ed366004611c0d565b610791565b61025b610300366004611e16565b6107ac565b61025b610313366004611c59565b6107f2565b610265610326366004611dfe565b61080d565b61023b610339366004611dfe565b610868565b61025b61034c366004611c0d565b61089c565b61026561035f366004611c0d565b6108f1565b610285610372366004611e38565b610935565b61023b610385366004611e38565b610a3a565b6101fd610398366004611e16565b610a59565b61021b610a82565b61025b6103b3366004611c0d565b610a91565b610265610aa9565b61025b6103ce366004611d69565b610aae565b61025b6103e1366004611c94565b610ac0565b61021b6103f4366004611dfe565b610aff565b610265610407366004611dfe565b610b65565b610265610b7c565b61025b610422366004611e16565b610b8e565b610265610baa565b6101fd61043d366004611c27565b610bce565b600061044d82610ca5565b8061045c575061045c82610cca565b90505b919050565b60606002805461047390612561565b80601f016020809104026020016040519081016040528092919081815260200182805461049f90612561565b80156104ec5780601f106104c1576101008083540402835291602001916104ec565b820191906000526020600020905b8154815290600101906020018083116104cf57829003601f168201915b5050505050905090565b600061050182610cef565b506000908152600660205260409020546001600160a01b031690565b600061052882610868565b9050806001600160a01b0316836001600160a01b031614156105655760405162461bcd60e51b815260040161055c906122f5565b60405180910390fd5b806001600160a01b0316610577610d14565b6001600160a01b0316148061059357506105938161043d610d14565b6105af5760405162461bcd60e51b815260040161055c90612336565b6105b98383610d18565b505050565b600a5490565b600060606105d1856108f1565b91508115806105e05750818410155b156105fa57506040805160008152602081019091526106cb565b600061061061060985876124d0565b8490610d86565b905061061c8582612507565b67ffffffffffffffff81111561064257634e487b7160e01b600052604160045260246000fd5b60405190808252806020026020018201604052801561066b578160200160208202803683370190505b509150845b818110156106c857610682878261073c565b8361068d8884612507565b815181106106ab57634e487b7160e01b600052603260045260246000fd5b6020908102919091010152806106c08161259c565b915050610670565b50505b935093915050565b6106e46106de610d14565b82610d9c565b6107005760405162461bcd60e51b815260040161055c9061200e565b6105b9838383610dfb565b60009081526020819052604090206001015490565b6107298261070b565b61073281610f38565b6105b98383610f49565b6000610747836108f1565b82106107655760405162461bcd60e51b815260040161055c9061205b565b506001600160a01b03821660009081526008602090815260408083208484529091529020545b92915050565b6107a96000805160206125fa83398151915282610b8e565b50565b6107b4610d14565b6001600160a01b0316816001600160a01b0316146107e45760405162461bcd60e51b815260040161055c90612434565b6107ee8282610f6b565b5050565b6105b983838360405180602001604052806000815250610ac0565b60006108176105be565b82106108355760405162461bcd60e51b815260040161055c90612393565b600a828154811061085657634e487b7160e01b600052603260045260246000fd5b90600052602060002001549050919050565b60008061087483610f8d565b90506001600160a01b03811661045c5760405162461bcd60e51b815260040161055c906122be565b6108b66000805160206125fa833981519152610398610d14565b6108d25760405162461bcd60e51b815260040161055c906121ef565b600c546108df8282610fa8565b6108ea8160016124d0565b600c555050565b60006001600160a01b0382166109195760405162461bcd60e51b815260040161055c90612240565b506001600160a01b031660009081526005602052604090205490565b600060606109416105be565b91508115806109505750818410155b1561096a5750604080516000815260208101909152610a33565b600061097961060985876124d0565b90506109858582612507565b67ffffffffffffffff8111156109ab57634e487b7160e01b600052604160045260246000fd5b6040519080825280602002602001820160405280156109d4578160200160208202803683370190505b509150845b81811015610a30576109ea8161080d565b836109f58884612507565b81518110610a1357634e487b7160e01b600052603260045260246000fd5b602090810291909101015280610a288161259c565b9150506109d9565b50505b9250929050565b6000828152600160205260408120610a52908361109d565b9392505050565b6000918252602082815260408084206001600160a01b0393909316845291905290205460ff1690565b60606003805461047390612561565b6107a96000805160206125fa83398151915282610720565b600081565b6107ee610ab9610d14565b83836110a9565b610ad1610acb610d14565b83610d9c565b610aed5760405162461bcd60e51b815260040161055c9061200e565b610af98484848461114c565b50505050565b6060610b0a82610cef565b6000610b1461117f565b90506000815111610b345760405180602001604052806000815250610a52565b80610b3e84611191565b604051602001610b4f929190611ebd565b6040516020818303038152906040529392505050565b600081815260016020526040812061045c9061123c565b6000805160206125fa83398151915281565b610b978261070b565b610ba081610f38565b6105b98383610f6b565b7f65d7a28e3265b37a6474929f336521b332c1681b933f6cb9f3376673440d862a81565b6001600160a01b03918216600090815260076020908152604080832093909416825291909152205460ff1690565b6001600160a01b03163b151590565b610c158282610a59565b6107ee576000828152602081815260408083206001600160a01b03851684529091529020805460ff19166001179055610c4c610d14565b6001600160a01b0316816001600160a01b0316837f2f8788117e7eff1d82e926ec794901d17c78024a50270940304540a733656f0d60405160405180910390a45050565b6000610a52836001600160a01b038416611247565b60006001600160e01b03198216635a05180f60e01b148061045c575061045c82611291565b60006001600160e01b0319821663780e9d6360e01b148061045c575061045c826112b6565b610cf8816112f6565b6107a95760405162461bcd60e51b815260040161055c906122be565b3390565b600081815260066020526040902080546001600160a01b0319166001600160a01b0384169081179091558190610d4d82610868565b6001600160a01b03167f8c5be1e5ebec7d5bd14f71427d1e84f3dd0314c0f7b2291e5b200ac8c7c3b92560405160405180910390a45050565b6000818310610d955781610a52565b5090919050565b600080610da883610868565b9050806001600160a01b0316846001600160a01b03161480610dcf5750610dcf8185610bce565b80610df35750836001600160a01b0316610de8846104f6565b6001600160a01b0316145b949350505050565b826001600160a01b0316610e0e82610868565b6001600160a01b031614610e345760405162461bcd60e51b815260040161055c906120f8565b6001600160a01b038216610e5a5760405162461bcd60e51b815260040161055c90612174565b610e678383836001611313565b826001600160a01b0316610e7a82610868565b6001600160a01b031614610ea05760405162461bcd60e51b815260040161055c906120f8565b600081815260066020908152604080832080546001600160a01b03199081169091556001600160a01b0387811680865260058552838620805460001901905590871680865283862080546001019055868652600490945282852080549092168417909155905184937fddf252ad1be2c89b69c2b068fc378daa952ba7f163c4a11628f55a4df523b3ef91a46105b98383836001610af9565b6107a981610f44610d14565b6113c6565b610f538282610c0b565b60008281526001602052604090206105b99082610c90565b610f75828261141f565b60008281526001602052604090206105b990826114a2565b6000908152600460205260409020546001600160a01b031690565b6001600160a01b038216610fce5760405162461bcd60e51b815260040161055c90612289565b610fd7816112f6565b15610ff45760405162461bcd60e51b815260040161055c9061213d565b611002600083836001611313565b61100b816112f6565b156110285760405162461bcd60e51b815260040161055c9061213d565b6001600160a01b038216600081815260056020908152604080832080546001019055848352600490915280822080546001600160a01b0319168417905551839291907fddf252ad1be2c89b69c2b068fc378daa952ba7f163c4a11628f55a4df523b3ef908290a46107ee600083836001610af9565b6000610a5283836114b7565b816001600160a01b0316836001600160a01b031614156110db5760405162461bcd60e51b815260040161055c906121b8565b6001600160a01b0383811660008181526007602090815260408083209487168084529490915290819020805460ff1916851515179055517f17307eab39ab6107e8899845ad3d59bd9653f200f220920489ca2b5937696c319061113f908590611fb2565b60405180910390a3505050565b611157848484610dfb565b611163848484846114ef565b610af95760405162461bcd60e51b815260040161055c906120a6565b60408051602081019091526000815290565b6060600061119e8361160a565b600101905060008167ffffffffffffffff8111156111cc57634e487b7160e01b600052604160045260246000fd5b6040519080825280601f01601f1916602001820160405280156111f6576020820181803683370190505b5090508181016020015b600019016f181899199a1a9b1b9c1cb0b131b232b360811b600a86061a8153600a850494508461122f57611234565b611200565b509392505050565b600061045c826116e2565b600061125383836116e6565b6112895750815460018181018455600084815260208082209093018490558454848252828601909352604090209190915561078b565b50600061078b565b60006001600160e01b03198216637965db0b60e01b148061045c575061045c826116fe565b60006001600160e01b031982166380ac58cd60e01b14806112e757506001600160e01b03198216635b5e139f60e01b145b8061045c575061045c82610ca5565b60008061130283610f8d565b6001600160a01b0316141592915050565b61131f84848484610af9565b60018111156113405760405162461bcd60e51b815260040161055c906123df565b816001600160a01b03851661135d5761135881611717565b611380565b836001600160a01b0316856001600160a01b03161461138057611380858261175b565b6001600160a01b03841661139c57611397816117f8565b6113bf565b846001600160a01b0316846001600160a01b0316146113bf576113bf84826118d1565b5050505050565b6113d08282610a59565b6107ee576113dd81611915565b6113e8836020611927565b6040516020016113f9929190611eec565b60408051601f198184030181529082905262461bcd60e51b825261055c91600401611fc6565b6114298282610a59565b156107ee576000828152602081815260408083206001600160a01b03851684529091529020805460ff1916905561145e610d14565b6001600160a01b0316816001600160a01b0316837ff6391f5c32d9c69d2a47ea670b442974b53935d1edc7fd64eb21e047a839171b60405160405180910390a45050565b6000610a52836001600160a01b038416611ad9565b60008260000182815481106114dc57634e487b7160e01b600052603260045260246000fd5b9060005260206000200154905092915050565b6000611503846001600160a01b0316610bfc565b156115ff57836001600160a01b031663150b7a0261151f610d14565b8786866040518563ffffffff1660e01b81526004016115419493929190611f75565b602060405180830381600087803b15801561155b57600080fd5b505af192505050801561158b575060408051601f3d908101601f1916820190925261158891810190611e75565b60015b6115e5573d8080156115b9576040519150601f19603f3d011682016040523d82523d6000602084013e6115be565b606091505b5080516115dd5760405162461bcd60e51b815260040161055c906120a6565b805181602001fd5b6001600160e01b031916630a85bd0160e11b149050610df3565b506001949350505050565b60008072184f03e93ff9f4daa797ed6e38ed64bf6a1f0160401b83106116495772184f03e93ff9f4daa797ed6e38ed64bf6a1f0160401b830492506040015b6d04ee2d6d415b85acef81000000008310611675576d04ee2d6d415b85acef8100000000830492506020015b662386f26fc10000831061169357662386f26fc10000830492506010015b6305f5e10083106116ab576305f5e100830492506008015b61271083106116bf57612710830492506004015b606483106116d1576064830492506002015b600a831061045c5760010192915050565b5490565b60009081526001919091016020526040902054151590565b6001600160e01b031981166301ffc9a760e01b14919050565b600a80546000838152600b60205260408120829055600182018355919091527fc65a7bb8d6351c1cf70c95a316cc6a92839c986682d98bc35f958f4883f9d2a80155565b60006001611768846108f1565b6117729190612507565b6000838152600960205260409020549091508082146117c5576001600160a01b03841660009081526008602090815260408083208584528252808320548484528184208190558352600990915290208190555b5060009182526009602090815260408084208490556001600160a01b039094168352600881528383209183525290812055565b600a5460009061180a90600190612507565b6000838152600b6020526040812054600a805493945090928490811061184057634e487b7160e01b600052603260045260246000fd5b9060005260206000200154905080600a838154811061186f57634e487b7160e01b600052603260045260246000fd5b6000918252602080832090910192909255828152600b9091526040808220849055858252812055600a8054806118b557634e487b7160e01b600052603160045260246000fd5b6001900381819060005260206000200160009055905550505050565b60006118dc836108f1565b6001600160a01b039093166000908152600860209081526040808320868452825280832085905593825260099052919091209190915550565b606061045c6001600160a01b03831660145b606060006119368360026124e8565b6119419060026124d0565b67ffffffffffffffff81111561196757634e487b7160e01b600052604160045260246000fd5b6040519080825280601f01601f191660200182016040528015611991576020820181803683370190505b509050600360fc1b816000815181106119ba57634e487b7160e01b600052603260045260246000fd5b60200101906001600160f81b031916908160001a905350600f60fb1b816001815181106119f757634e487b7160e01b600052603260045260246000fd5b60200101906001600160f81b031916908160001a9053506000611a1b8460026124e8565b611a269060016124d0565b90505b6001811115611aba576f181899199a1a9b1b9c1cb0b131b232b360811b85600f1660108110611a6857634e487b7160e01b600052603260045260246000fd5b1a60f81b828281518110611a8c57634e487b7160e01b600052603260045260246000fd5b60200101906001600160f81b031916908160001a90535060049490941c93611ab38161254a565b9050611a29565b508315610a525760405162461bcd60e51b815260040161055c90611fd9565b60008181526001830160205260408120548015611bec576000611afd600183612507565b8554909150600090611b1190600190612507565b9050818114611b92576000866000018281548110611b3f57634e487b7160e01b600052603260045260246000fd5b9060005260206000200154905080876000018481548110611b7057634e487b7160e01b600052603260045260246000fd5b6000918252602080832090910192909255918252600188019052604090208390555b8554869080611bb157634e487b7160e01b600052603160045260246000fd5b60019003818190600052602060002001600090559055856001016000868152602001908152602001600020600090556001935050505061078b565b600091505061078b565b80356001600160a01b038116811461045f57600080fd5b600060208284031215611c1e578081fd5b610a5282611bf6565b60008060408385031215611c39578081fd5b611c4283611bf6565b9150611c5060208401611bf6565b90509250929050565b600080600060608486031215611c6d578081fd5b611c7684611bf6565b9250611c8460208501611bf6565b9150604084013590509250925092565b60008060008060808587031215611ca9578081fd5b611cb285611bf6565b9350611cc060208601611bf6565b925060408501359150606085013567ffffffffffffffff80821115611ce3578283fd5b818701915087601f830112611cf6578283fd5b813581811115611d0857611d086125cd565b604051601f8201601f19908116603f01168101908382118183101715611d3057611d306125cd565b816040528281528a6020848701011115611d48578586fd5b82602086016020830137918201602001949094529598949750929550505050565b60008060408385031215611d7b578182fd5b611d8483611bf6565b915060208301358015158114611d98578182fd5b809150509250929050565b60008060408385031215611db5578182fd5b611dbe83611bf6565b946020939093013593505050565b600080600060608486031215611de0578283fd5b611de984611bf6565b95602085013595506040909401359392505050565b600060208284031215611e0f578081fd5b5035919050565b60008060408385031215611e28578182fd5b82359150611c5060208401611bf6565b60008060408385031215611e4a578182fd5b50508035926020909101359150565b600060208284031215611e6a578081fd5b8135610a52816125e3565b600060208284031215611e86578081fd5b8151610a52816125e3565b60008151808452611ea981602086016020860161251e565b601f01601f19169290920160200192915050565b60008351611ecf81846020880161251e565b835190830190611ee381836020880161251e565b01949350505050565b60007f416363657373436f6e74726f6c3a206163636f756e742000000000000000000082528351611f2481601785016020880161251e565b7001034b99036b4b9b9b4b733903937b6329607d1b6017918401918201528351611f5581602884016020880161251e565b01602801949350505050565b6001600160a01b0391909116815260200190565b6001600160a01b0385811682528416602082015260408101839052608060608201819052600090611fa890830184611e91565b9695505050505050565b901515815260200190565b90815260200190565b600060208252610a526020830184611e91565b6020808252818101527f537472696e67733a20686578206c656e67746820696e73756666696369656e74604082015260600190565b6020808252602d908201527f4552433732313a2063616c6c6572206973206e6f7420746f6b656e206f776e6560408201526c1c881bdc88185c1c1c9bdd9959609a1b606082015260800190565b6020808252602b908201527f455243373231456e756d657261626c653a206f776e657220696e646578206f7560408201526a74206f6620626f756e647360a81b606082015260800190565b60208082526032908201527f4552433732313a207472616e7366657220746f206e6f6e20455243373231526560408201527131b2b4bb32b91034b6b83632b6b2b73a32b960711b606082015260800190565b60208082526025908201527f4552433732313a207472616e736665722066726f6d20696e636f72726563742060408201526437bbb732b960d91b606082015260800190565b6020808252601c908201527f4552433732313a20746f6b656e20616c7265616479206d696e74656400000000604082015260600190565b60208082526024908201527f4552433732313a207472616e7366657220746f20746865207a65726f206164646040820152637265737360e01b606082015260800190565b60208082526019908201527f4552433732313a20617070726f766520746f2063616c6c657200000000000000604082015260600190565b60208082526031908201527f4352433732314e61747572654175746f49643a206d7573742068617665206d696040820152701b9d195c881c9bdb19481d1bc81b5a5b9d607a1b606082015260800190565b60208082526029908201527f4552433732313a2061646472657373207a65726f206973206e6f7420612076616040820152683634b21037bbb732b960b91b606082015260800190565b6020808252818101527f4552433732313a206d696e7420746f20746865207a65726f2061646472657373604082015260600190565b60208082526018908201527f4552433732313a20696e76616c696420746f6b656e2049440000000000000000604082015260600190565b60208082526021908201527f4552433732313a20617070726f76616c20746f2063757272656e74206f776e656040820152603960f91b606082015260800190565b6020808252603d908201527f4552433732313a20617070726f76652063616c6c6572206973206e6f7420746f60408201527f6b656e206f776e6572206f7220617070726f76656420666f7220616c6c000000606082015260800190565b6020808252602c908201527f455243373231456e756d657261626c653a20676c6f62616c20696e646578206f60408201526b7574206f6620626f756e647360a01b606082015260800190565b60208082526035908201527f455243373231456e756d657261626c653a20636f6e7365637574697665207472604082015274185b9cd9995c9cc81b9bdd081cdd5c1c1bdc9d1959605a1b606082015260800190565b6020808252602f908201527f416363657373436f6e74726f6c3a2063616e206f6e6c792072656e6f756e636560408201526e103937b632b9903337b91039b2b63360891b606082015260800190565b60006040820184835260206040818501528185518084526060860191508287019350845b818110156124c3578451835293830193918301916001016124a7565b5090979650505050505050565b600082198211156124e3576124e36125b7565b500190565b6000816000190483118215151615612502576125026125b7565b500290565b600082821015612519576125196125b7565b500390565b60005b83811015612539578181015183820152602001612521565b83811115610af95750506000910152565b600081612559576125596125b7565b506000190190565b60028104600182168061257557607f821691505b6020821081141561259657634e487b7160e01b600052602260045260246000fd5b50919050565b60006000198214156125b0576125b06125b7565b5060010190565b634e487b7160e01b600052601160045260246000fd5b634e487b7160e01b600052604160045260246000fd5b6001600160e01b0319811681146107a957600080fdfe9f2df0fed2c77648de5860a4cc508cd0818c85b8b8a1ab4ceeef8d981c8956a6a264697066735822122072e463902e0194f9b3bfa6fc6fc12c0a58816bb2e11bf2d12097a3ac712d587964736f6c63430008010033",
  "immutableReferences": {},
  "source": "// SPDX-License-Identifier: UNLICENSED\r\npragma solidity ^0.8.1; // Solidity Version\r\n\r\nimport \"@confluxfans/contracts/token/CRC721/extensions/CRC721Enumerable.sol\";\r\nimport \"@confluxfans/contracts/InternalContracts/InternalContractsHandler.sol\";\r\nimport \"@openzeppelin/contracts/access/AccessControlEnumerable.sol\";\r\nimport \"@openzeppelin/contracts/token/ERC721/ERC721.sol\";\r\nimport \"@openzeppelin/contracts/utils/Counters.sol\";\r\n\r\ncontract HIT_DAO is AccessControlEnumerable, CRC721Enumerable, InternalContractsHandler {\r\n    using Strings for uint256;\r\n\r\n    // \r\n    uint256 private _tokenIds;\r\n\r\n    string private _URI;\r\n\r\n    bytes32 public constant MINTER_ROLE = keccak256(\"MINTER_ROLE\");\r\n    bytes32 public constant PAUSER_ROLE = keccak256(\"PAUSER_ROLE\");\r\n\r\n    // \r\n    constructor(\r\n        string memory name_,\r\n        string memory symbol_,\r\n        string memory uri_\r\n    ) ERC721 (name_, symbol_){\r\n        _setupRole(DEFAULT_ADMIN_ROLE, _msgSender());\r\n\r\n        _setupRole(MINTER_ROLE, _msgSender());\r\n        _setupRole(PAUSER_ROLE, _msgSender());\r\n\r\n        _URI = uri_;\r\n        _tokenIds = 1;\r\n    }\r\n\r\n    //simple code for add a account as minter\r\n    function addMinter(address minter_) external {\r\n        grantRole(MINTER_ROLE, minter_);\r\n    }\r\n\r\n    function removeMinter(address minter_) external {\r\n        revokeRole(MINTER_ROLE, minter_);\r\n    }\r\n\r\n    /**\r\n     * @dev Creates a new token for `to`. Its token ID will be automatically\r\n     * assigned (and available on the emitted {IERC721-Transfer} event), and the token\r\n     * URI autogenerated based on the base URI passed at construction.\r\n     *\r\n     * See {ERC721-_mint}.\r\n     *\r\n     * Requirements:\r\n     *\r\n     * - the caller must have the `MINTER_ROLE`.\r\n     */\r\n    function mint(address to) public virtual {\r\n        require(hasRole(MINTER_ROLE, _msgSender()), \"CRC721NatureAutoId: must have minter role to mint\");\r\n        uint256 tokenId = _tokenIds;\r\n        _mint(to, tokenId);\r\n        _tokenIds = tokenId+1;\r\n    }\r\n\r\n//    /**\r\n//     * @dev Batch version of mint function\r\n//     */\r\n//    function mintBatch(address to, uint256 amount) public virtual {\r\n//        require(hasRole(MINTER_ROLE, _msgSender()), \"CRC721NatureAutoId: must have minter role to mint\");\r\n//        uint256 tokenId = _tokenIds;\r\n//        for (uint256 index = 0; index < amount; ++index) _mint(to, tokenId + index);\r\n//        _tokenIds = tokenId + amount;\r\n//    }\r\n\r\n//    //chy:Batch airdrop method, giving a group of accounts each airdrop 1 nft with a parsimonious id.\r\n//    function batchAddItemByAddress(address[] calldata _initialOwners)\r\n//    public\r\n//    {\r\n//        require(hasRole(MINTER_ROLE, _msgSender()), \"CRC721NatureAutoId: must have minter role to mint\");\r\n//        uint256 _length = _initialOwners.length;\r\n//        uint256 tokenId = _tokenIds;\r\n//        for (uint256 i = 0; i < _length; ++i) {\r\n//            _mint(_initialOwners[i], tokenId + i);\r\n//        }\r\n//        _tokenIds = tokenId + _length;\r\n//    }\r\n\r\n    function supportsInterface(bytes4 interfaceId) public view virtual override(AccessControlEnumerable, ERC721Enumerable) returns (bool) {\r\n        return AccessControlEnumerable.supportsInterface(interfaceId) || ERC721Enumerable.supportsInterface(interfaceId);\r\n    }\r\n}\r\n\r\n// {\r\n//\"description\": \"This is the HIT DAO NFT Collection for those builders from HIT DAO Workshop\",\r\n//\"image\": \"\", // \r\n//\"name\": \"HIT DAO Builder\",\r\n//\"token_id\": \"1\",\r\n// }\r\n",
  "sourcePath": "C:\\Users\\luxyd\\Project\\HIT-DAO-Workshop\\HIT-DAO Workshop #2\\contracts\\HIT-DAO.sol",
  "compiler": {
    "name": "solc",
    "version": "0.8.1+commit.df193b15.Emscripten.clang"
  },
  "schemaVersion": "3.4.13",
  "updatedAt": "2023-03-31T21:51:38.725Z",
  "devdoc": {
    "kind": "dev",
    "methods": {
      "approve(address,uint256)": {
        "details": "See {IERC721-approve}."
      },
      "balanceOf(address)": {
        "details": "See {IERC721-balanceOf}."
      },
      "getApproved(uint256)": {
        "details": "See {IERC721-getApproved}."
      },
      "getRoleAdmin(bytes32)": {
        "details": "Returns the admin role that controls `role`. See {grantRole} and {revokeRole}. To change a role's admin, use {_setRoleAdmin}."
      },
      "getRoleMember(bytes32,uint256)": {
        "details": "Returns one of the accounts that have `role`. `index` must be a value between 0 and {getRoleMemberCount}, non-inclusive. Role bearers are not sorted in any particular way, and their ordering may change at any point. WARNING: When using {getRoleMember} and {getRoleMemberCount}, make sure you perform all queries on the same block. See the following https://forum.openzeppelin.com/t/iterating-over-elements-on-enumerableset-in-openzeppelin-contracts/2296[forum post] for more information."
      },
      "getRoleMemberCount(bytes32)": {
        "details": "Returns the number of accounts that have `role`. Can be used together with {getRoleMember} to enumerate all bearers of a role."
      },
      "grantRole(bytes32,address)": {
        "details": "Grants `role` to `account`. If `account` had not been already granted `role`, emits a {RoleGranted} event. Requirements: - the caller must have ``role``'s admin role. May emit a {RoleGranted} event."
      },
      "hasRole(bytes32,address)": {
        "details": "Returns `true` if `account` has been granted `role`."
      },
      "isApprovedForAll(address,address)": {
        "details": "See {IERC721-isApprovedForAll}."
      },
      "mint(address)": {
        "details": "Creates a new token for `to`. Its token ID will be automatically assigned (and available on the emitted {IERC721-Transfer} event), and the token URI autogenerated based on the base URI passed at construction. See {ERC721-_mint}. Requirements: - the caller must have the `MINTER_ROLE`."
      },
      "name()": {
        "details": "See {IERC721Metadata-name}."
      },
      "ownerOf(uint256)": {
        "details": "See {IERC721-ownerOf}."
      },
      "renounceRole(bytes32,address)": {
        "details": "Revokes `role` from the calling account. Roles are often managed via {grantRole} and {revokeRole}: this function's purpose is to provide a mechanism for accounts to lose their privileges if they are compromised (such as when a trusted device is misplaced). If the calling account had been revoked `role`, emits a {RoleRevoked} event. Requirements: - the caller must be `account`. May emit a {RoleRevoked} event."
      },
      "revokeRole(bytes32,address)": {
        "details": "Revokes `role` from `account`. If `account` had been granted `role`, emits a {RoleRevoked} event. Requirements: - the caller must have ``role``'s admin role. May emit a {RoleRevoked} event."
      },
      "safeTransferFrom(address,address,uint256)": {
        "details": "See {IERC721-safeTransferFrom}."
      },
      "safeTransferFrom(address,address,uint256,bytes)": {
        "details": "See {IERC721-safeTransferFrom}."
      },
      "setApprovalForAll(address,bool)": {
        "details": "See {IERC721-setApprovalForAll}."
      },
      "symbol()": {
        "details": "See {IERC721Metadata-symbol}."
      },
      "tokenByIndex(uint256)": {
        "details": "See {IERC721Enumerable-tokenByIndex}."
      },
      "tokenOfOwnerByIndex(address,uint256)": {
        "details": "See {IERC721Enumerable-tokenOfOwnerByIndex}."
      },
      "tokenURI(uint256)": {
        "details": "See {IERC721Metadata-tokenURI}."
      },
      "tokens(uint256,uint256)": {
        "details": "Returns token IDs in pagination view."
      },
      "tokensOf(address,uint256,uint256)": {
        "details": "Returns token IDs of specified `owner` in pagination view."
      },
      "totalSupply()": {
        "details": "See {IERC721Enumerable-totalSupply}."
      },
      "transferFrom(address,address,uint256)": {
        "details": "See {IERC721-transferFrom}."
      }
    },
    "version": 1
  },
  "userdoc": {
    "kind": "user",
    "methods": {},
    "version": 1
  }
}